{
  "_format": "hh-sol-artifact-1",
  "contractName": "ColeccionServiciosNFT",
  "sourceName": "contracts/ColeccionServiciosNFT.sol",
  "abi": [
    {
      "inputs": [],
      "stateMutability": "nonpayable",
      "type": "constructor"
    },
    {
      "anonymous": false,
      "inputs": [
        {
          "indexed": true,
          "internalType": "address",
          "name": "owner",
          "type": "address"
        },
        {
          "indexed": true,
          "internalType": "address",
          "name": "approved",
          "type": "address"
        },
        {
          "indexed": true,
          "internalType": "uint256",
          "name": "tokenId",
          "type": "uint256"
        }
      ],
      "name": "Approval",
      "type": "event"
    },
    {
      "anonymous": false,
      "inputs": [
        {
          "indexed": true,
          "internalType": "address",
          "name": "owner",
          "type": "address"
        },
        {
          "indexed": true,
          "internalType": "address",
          "name": "operator",
          "type": "address"
        },
        {
          "indexed": false,
          "internalType": "bool",
          "name": "approved",
          "type": "bool"
        }
      ],
      "name": "ApprovalForAll",
      "type": "event"
    },
    {
      "anonymous": false,
      "inputs": [
        {
          "indexed": false,
          "internalType": "uint256",
          "name": "_fromTokenId",
          "type": "uint256"
        },
        {
          "indexed": false,
          "internalType": "uint256",
          "name": "_toTokenId",
          "type": "uint256"
        }
      ],
      "name": "BatchMetadataUpdate",
      "type": "event"
    },
    {
      "anonymous": false,
      "inputs": [
        {
          "indexed": true,
          "internalType": "uint256",
          "name": "tokenId",
          "type": "uint256"
        },
        {
          "indexed": false,
          "internalType": "uint8",
          "name": "estadoAnterior",
          "type": "uint8"
        },
        {
          "indexed": false,
          "internalType": "uint8",
          "name": "nuevoEstado",
          "type": "uint8"
        },
        {
          "indexed": false,
          "internalType": "uint8",
          "name": "calificacion",
          "type": "uint8"
        }
      ],
      "name": "EstadoCambiado",
      "type": "event"
    },
    {
      "anonymous": false,
      "inputs": [
        {
          "indexed": false,
          "internalType": "uint256",
          "name": "_tokenId",
          "type": "uint256"
        }
      ],
      "name": "MetadataUpdate",
      "type": "event"
    },
    {
      "anonymous": false,
      "inputs": [
        {
          "indexed": true,
          "internalType": "uint256",
          "name": "tokenId",
          "type": "uint256"
        },
        {
          "indexed": true,
          "internalType": "address",
          "name": "destinatario",
          "type": "address"
        }
      ],
      "name": "ServicioCreado",
      "type": "event"
    },
    {
      "anonymous": false,
      "inputs": [
        {
          "indexed": true,
          "internalType": "uint256",
          "name": "tokenId",
          "type": "uint256"
        },
        {
          "indexed": true,
          "internalType": "address",
          "name": "acompanante",
          "type": "address"
        },
        {
          "indexed": true,
          "internalType": "uint256",
          "name": "tokenIdEvidencia",
          "type": "uint256"
        }
      ],
      "name": "ServicioPagado",
      "type": "event"
    },
    {
      "anonymous": false,
      "inputs": [
        {
          "indexed": true,
          "internalType": "address",
          "name": "from",
          "type": "address"
        },
        {
          "indexed": true,
          "internalType": "address",
          "name": "to",
          "type": "address"
        },
        {
          "indexed": true,
          "internalType": "uint256",
          "name": "tokenId",
          "type": "uint256"
        }
      ],
      "name": "Transfer",
      "type": "event"
    },
    {
      "anonymous": false,
      "inputs": [
        {
          "indexed": false,
          "internalType": "uint8",
          "name": "estado",
          "type": "uint8"
        },
        {
          "indexed": false,
          "internalType": "string",
          "name": "nuevaURI",
          "type": "string"
        }
      ],
      "name": "URIEstadoConfigurada",
      "type": "event"
    },
    {
      "inputs": [
        {
          "internalType": "uint8",
          "name": "",
          "type": "uint8"
        }
      ],
      "name": "URIsPorEstado",
      "outputs": [
        {
          "internalType": "string",
          "name": "",
          "type": "string"
        }
      ],
      "stateMutability": "view",
      "type": "function"
    },
    {
      "inputs": [
        {
          "internalType": "uint256",
          "name": "",
          "type": "uint256"
        }
      ],
      "name": "acompanantesServicios",
      "outputs": [
        {
          "internalType": "address",
          "name": "",
          "type": "address"
        }
      ],
      "stateMutability": "view",
      "type": "function"
    },
    {
      "inputs": [
        {
          "internalType": "address",
          "name": "to",
          "type": "address"
        },
        {
          "internalType": "uint256",
          "name": "tokenId",
          "type": "uint256"
        }
      ],
      "name": "approve",
      "outputs": [],
      "stateMutability": "nonpayable",
      "type": "function"
    },
    {
      "inputs": [
        {
          "internalType": "uint256",
          "name": "tokenId",
          "type": "uint256"
        },
        {
          "internalType": "address",
          "name": "acompanante",
          "type": "address"
        }
      ],
      "name": "asignarAcompanante",
      "outputs": [],
      "stateMutability": "nonpayable",
      "type": "function"
    },
    {
      "inputs": [
        {
          "internalType": "address",
          "name": "owner",
          "type": "address"
        }
      ],
      "name": "balanceOf",
      "outputs": [
        {
          "internalType": "uint256",
          "name": "",
          "type": "uint256"
        }
      ],
      "stateMutability": "view",
      "type": "function"
    },
    {
      "inputs": [
        {
          "internalType": "uint256",
          "name": "",
          "type": "uint256"
        }
      ],
      "name": "calificacionesServicios",
      "outputs": [
        {
          "internalType": "uint8",
          "name": "",
          "type": "uint8"
        }
      ],
      "stateMutability": "view",
      "type": "function"
    },
    {
      "inputs": [
        {
          "internalType": "uint256",
          "name": "tokenId",
          "type": "uint256"
        },
        {
          "internalType": "uint8",
          "name": "nuevoEstado",
          "type": "uint8"
        },
        {
          "internalType": "uint8",
          "name": "calificacion",
          "type": "uint8"
        }
      ],
      "name": "cambiarEstadoServicio",
      "outputs": [],
      "stateMutability": "nonpayable",
      "type": "function"
    },
    {
      "inputs": [
        {
          "internalType": "uint8",
          "name": "estado",
          "type": "uint8"
        },
        {
          "internalType": "string",
          "name": "nuevaURI",
          "type": "string"
        }
      ],
      "name": "configurarURIEstado",
      "outputs": [],
      "stateMutability": "nonpayable",
      "type": "function"
    },
    {
      "inputs": [
        {
          "internalType": "address",
          "name": "destinatario",
          "type": "address"
        }
      ],
      "name": "crearServicio",
      "outputs": [
        {
          "internalType": "uint256",
          "name": "",
          "type": "uint256"
        }
      ],
      "stateMutability": "nonpayable",
      "type": "function"
    },
    {
      "inputs": [
        {
          "internalType": "uint256",
          "name": "",
          "type": "uint256"
        }
      ],
      "name": "estadosServicios",
      "outputs": [
        {
          "internalType": "uint8",
          "name": "",
          "type": "uint8"
        }
      ],
      "stateMutability": "view",
      "type": "function"
    },
    {
      "inputs": [
        {
          "internalType": "uint256",
          "name": "",
          "type": "uint256"
        }
      ],
      "name": "evidenciasServicios",
      "outputs": [
        {
          "internalType": "uint256",
          "name": "",
          "type": "uint256"
        }
      ],
      "stateMutability": "view",
      "type": "function"
    },
    {
      "inputs": [
        {
          "internalType": "uint256",
          "name": "tokenId",
          "type": "uint256"
        }
      ],
      "name": "getApproved",
      "outputs": [
        {
          "internalType": "address",
          "name": "",
          "type": "address"
        }
      ],
      "stateMutability": "view",
      "type": "function"
    },
    {
      "inputs": [
        {
          "internalType": "address",
          "name": "owner",
          "type": "address"
        },
        {
          "internalType": "address",
          "name": "operator",
          "type": "address"
        }
      ],
      "name": "isApprovedForAll",
      "outputs": [
        {
          "internalType": "bool",
          "name": "",
          "type": "bool"
        }
      ],
      "stateMutability": "view",
      "type": "function"
    },
    {
      "inputs": [
        {
          "internalType": "uint256",
          "name": "tokenId",
          "type": "uint256"
        }
      ],
      "name": "marcarComoPagado",
      "outputs": [],
      "stateMutability": "nonpayable",
      "type": "function"
    },
    {
      "inputs": [],
      "name": "name",
      "outputs": [
        {
          "internalType": "string",
          "name": "",
          "type": "string"
        }
      ],
      "stateMutability": "view",
      "type": "function"
    },
    {
      "inputs": [
        {
          "internalType": "uint256",
          "name": "tokenId",
          "type": "uint256"
        }
      ],
      "name": "obtenerAcompanante",
      "outputs": [
        {
          "internalType": "address",
          "name": "",
          "type": "address"
        }
      ],
      "stateMutability": "view",
      "type": "function"
    },
    {
      "inputs": [
        {
          "internalType": "uint256",
          "name": "tokenId",
          "type": "uint256"
        }
      ],
      "name": "obtenerCalificacionServicio",
      "outputs": [
        {
          "internalType": "uint8",
          "name": "",
          "type": "uint8"
        }
      ],
      "stateMutability": "view",
      "type": "function"
    },
    {
      "inputs": [
        {
          "internalType": "uint256",
          "name": "tokenId",
          "type": "uint256"
        }
      ],
      "name": "obtenerEstadoServicio",
      "outputs": [
        {
          "internalType": "uint8",
          "name": "",
          "type": "uint8"
        }
      ],
      "stateMutability": "view",
      "type": "function"
    },
    {
      "inputs": [
        {
          "internalType": "uint256",
          "name": "tokenId",
          "type": "uint256"
        }
      ],
      "name": "obtenerEvidenciaServicio",
      "outputs": [
        {
          "internalType": "uint256",
          "name": "",
          "type": "uint256"
        }
      ],
      "stateMutability": "view",
      "type": "function"
    },
    {
      "inputs": [],
      "name": "obtenerProximoTokenId",
      "outputs": [
        {
          "internalType": "uint256",
          "name": "",
          "type": "uint256"
        }
      ],
      "stateMutability": "view",
      "type": "function"
    },
    {
      "inputs": [
        {
          "internalType": "uint256",
          "name": "tokenId",
          "type": "uint256"
        }
      ],
      "name": "obtenerURIServicio",
      "outputs": [
        {
          "internalType": "string",
          "name": "",
          "type": "string"
        }
      ],
      "stateMutability": "view",
      "type": "function"
    },
    {
      "inputs": [
        {
          "internalType": "uint256",
          "name": "tokenId",
          "type": "uint256"
        }
      ],
      "name": "ownerOf",
      "outputs": [
        {
          "internalType": "address",
          "name": "",
          "type": "address"
        }
      ],
      "stateMutability": "view",
      "type": "function"
    },
    {
      "inputs": [
        {
          "internalType": "address",
          "name": "from",
          "type": "address"
        },
        {
          "internalType": "address",
          "name": "to",
          "type": "address"
        },
        {
          "internalType": "uint256",
          "name": "tokenId",
          "type": "uint256"
        }
      ],
      "name": "safeTransferFrom",
      "outputs": [],
      "stateMutability": "nonpayable",
      "type": "function"
    },
    {
      "inputs": [
        {
          "internalType": "address",
          "name": "from",
          "type": "address"
        },
        {
          "internalType": "address",
          "name": "to",
          "type": "address"
        },
        {
          "internalType": "uint256",
          "name": "tokenId",
          "type": "uint256"
        },
        {
          "internalType": "bytes",
          "name": "data",
          "type": "bytes"
        }
      ],
      "name": "safeTransferFrom",
      "outputs": [],
      "stateMutability": "nonpayable",
      "type": "function"
    },
    {
      "inputs": [
        {
          "internalType": "address",
          "name": "operator",
          "type": "address"
        },
        {
          "internalType": "bool",
          "name": "approved",
          "type": "bool"
        }
      ],
      "name": "setApprovalForAll",
      "outputs": [],
      "stateMutability": "nonpayable",
      "type": "function"
    },
    {
      "inputs": [
        {
          "internalType": "bytes4",
          "name": "interfaceId",
          "type": "bytes4"
        }
      ],
      "name": "supportsInterface",
      "outputs": [
        {
          "internalType": "bool",
          "name": "",
          "type": "bool"
        }
      ],
      "stateMutability": "view",
      "type": "function"
    },
    {
      "inputs": [],
      "name": "symbol",
      "outputs": [
        {
          "internalType": "string",
          "name": "",
          "type": "string"
        }
      ],
      "stateMutability": "view",
      "type": "function"
    },
    {
      "inputs": [
        {
          "internalType": "uint256",
          "name": "tokenId",
          "type": "uint256"
        }
      ],
      "name": "tokenURI",
      "outputs": [
        {
          "internalType": "string",
          "name": "",
          "type": "string"
        }
      ],
      "stateMutability": "view",
      "type": "function"
    },
    {
      "inputs": [
        {
          "internalType": "address",
          "name": "from",
          "type": "address"
        },
        {
          "internalType": "address",
          "name": "to",
          "type": "address"
        },
        {
          "internalType": "uint256",
          "name": "tokenId",
          "type": "uint256"
        }
      ],
      "name": "transferFrom",
      "outputs": [],
      "stateMutability": "nonpayable",
      "type": "function"
    }
  ],
  "bytecode": "0x60806040523480156200001157600080fd5b506040518060400160405280601581526020017f436f6c656363696f6e536572766963696f734e465400000000000000000000008152506040518060400160405280600581526020016410d4d3919560da1b815250816000908162000077919062000134565b50600162000086828262000134565b50505062000200565b634e487b7160e01b600052604160045260246000fd5b600181811c90821680620000ba57607f821691505b602082108103620000db57634e487b7160e01b600052602260045260246000fd5b50919050565b601f8211156200012f57600081815260208120601f850160051c810160208610156200010a5750805b601f850160051c820191505b818110156200012b5782815560010162000116565b5050505b505050565b81516001600160401b038111156200015057620001506200008f565b6200016881620001618454620000a5565b84620000e1565b602080601f831160018114620001a05760008415620001875750858301515b600019600386901b1c1916600185901b1785556200012b565b600085815260208120601f198616915b82811015620001d157888601518255948401946001909101908401620001b0565b5085821015620001f05787850151600019600388901b60f8161c191681555b5050505050600190811b01905550565b61258480620002106000396000f3fe608060405234801561001057600080fd5b50600436106101cf5760003560e01c80634f9a681511610104578063a22cb465116100a2578063d77b024911610071578063d77b024914610438578063e985e9c51461044b578063f91153bb14610487578063f91e819b1461048f57600080fd5b8063a22cb465146103dc578063b4c4d88c146103ef578063b88d4fde14610412578063c87b56dd1461042557600080fd5b80637ad79966116100de5780637ad799661461038b5780638ab3fe64146103ae5780638d3f55ef146103c157806395d89b41146103d457600080fd5b80634f9a68151461033c5780636352211e1461036557806370a082311461037857600080fd5b806323b872dd116101715780633f03fb6c1161014b5780633f03fb6c146102d157806340df64c2146102e457806342842e0e146103045780634d740ff51461031757600080fd5b806323b872dd1461028a5780632d2185b61461029d5780633a0f52b8146102b057600080fd5b8063081812fc116101ad578063081812fc1461023c578063095ea7b31461024f578063098d8afb1461026457806311a9e8601461027757600080fd5b806301ffc9a7146101d457806305f70b39146101fc57806306fdde0314610227575b600080fd5b6101e76101e2366004611e70565b6104a2565b60405190151581526020015b60405180910390f35b61020f61020a366004611e8d565b6104b3565b6040516001600160a01b0390911681526020016101f3565b61022f61050a565b6040516101f39190611ef6565b61020f61024a366004611e8d565b61059c565b61026261025d366004611f25565b6105c3565b005b610262610272366004611f60565b6106d8565b610262610285366004612028565b610b2e565b61026261029836600461208a565b610bde565b6102626102ab3660046120c6565b610c0f565b6102c36102be3660046120f2565b610cbc565b6040519081526020016101f3565b61022f6102df36600461210d565b610e22565b6102c36102f2366004611e8d565b600a6020526000908152604090205481565b61026261031236600461208a565b610ebc565b61032a610325366004611e8d565b610ed7565b60405160ff90911681526020016101f3565b61020f61034a366004611e8d565b6009602052600090815260409020546001600160a01b031681565b61020f610373366004611e8d565b610f1f565b6102c36103863660046120f2565b610f7e565b61032a610399366004611e8d565b60086020526000908152604090205460ff1681565b6102626103bc366004611e8d565b611004565b61032a6103cf366004611e8d565b611287565b61022f6112cf565b6102626103ea366004612128565b6112de565b61032a6103fd366004611e8d565b60076020526000908152604090205460ff1681565b610262610420366004612164565b6112ed565b61022f610433366004611e8d565b611325565b6102c3610446366004611e8d565b611330565b6101e76104593660046121e0565b6001600160a01b03918216600090815260056020908152604080832093909416825291909152205460ff1690565b600c546102c3565b61022f61049d366004611e8d565b611375565b60006104ad826113b1565b92915050565b6000806104bf836113d6565b6001600160a01b0316036104ee5760405162461bcd60e51b81526004016104e59061220a565b60405180910390fd5b506000908152600960205260409020546001600160a01b031690565b60606000805461051990612236565b80601f016020809104026020016040519081016040528092919081815260200182805461054590612236565b80156105925780601f1061056757610100808354040283529160200191610592565b820191906000526020600020905b81548152906001019060200180831161057557829003601f168201915b5050505050905090565b60006105a7826113f1565b506000908152600460205260409020546001600160a01b031690565b60006105ce82610f1f565b9050806001600160a01b0316836001600160a01b03160361063b5760405162461bcd60e51b815260206004820152602160248201527f4552433732313a20617070726f76616c20746f2063757272656e74206f776e656044820152603960f91b60648201526084016104e5565b336001600160a01b038216148061065757506106578133610459565b6106c95760405162461bcd60e51b815260206004820152603d60248201527f4552433732313a20617070726f76652063616c6c6572206973206e6f7420746f60448201527f6b656e206f776e6572206f7220617070726f76656420666f7220616c6c00000060648201526084016104e5565b6106d38383611444565b505050565b60006106e3846113d6565b6001600160a01b0316036107095760405162461bcd60e51b81526004016104e59061220a565b60018260ff1610158015610721575060058260ff1611155b61075f5760405162461bcd60e51b815260206004820152600f60248201526e45737461646f20696e76616c69646f60881b60448201526064016104e5565b6000838152600760205260409020805460ff84811660ff198316811790935516906004036108155760018260ff161015801561079f575060058260ff1611155b6107f55760405162461bcd60e51b815260206004820152602160248201527f43616c696669636163696f6e20646562652073657220656e74726520312079206044820152603560f81b60648201526084016104e5565b6000848152600860205260409020805460ff191660ff841617905561082c565b6000848152600860205260409020805460ff191690555b8260ff16600503610a98578060ff1660041461089c5760405162461bcd60e51b815260206004820152602960248201527f536572766963696f20646562652065737461722063616c6966696361646f207060448201526830b930903830b3b0b960b91b60648201526084016104e5565b6000848152600960205260409020546001600160a01b0316806108fb5760405162461bcd60e51b815260206004820152601760248201527641636f6d70616e616e7465206e6f20617369676e61646f60481b60448201526064016104e5565b600c80546000918261090c83612270565b91905055905061091c82826114b2565b60008181526007602090815260408083208054600560ff1991821681179092558a85526008845282852054868652838620805460ff909216919092161790556009835290832080546001600160a01b0319166001600160a01b0387161790558252600b905260008051602061252f833981519152805461099b90612236565b90501115610a50576005600052600b60205260008051602061252f8339815191528054610a509183916109cd90612236565b80601f01602080910402602001604051908101604052809291908181526020018280546109f990612236565b8015610a465780601f10610a1b57610100808354040283529160200191610a46565b820191906000526020600020905b815481529060010190602001808311610a2957829003601f168201915b50505050506114cc565b6000868152600a60205260408082208390555182916001600160a01b0385169189917f42406f986d0f800e9a448e3b7bf73812e866ea21c87f9de9b62543f3f7fc259d91a450505b60ff83166000908152600b602052604081208054610ab590612236565b90501115610ae05760ff83166000908152600b602052604090208054610ae09186916109cd90612236565b6040805160ff83811682528581166020830152841681830152905185917f4f94d5116f4945dafe7888956ff16dc6beff3ef0328302fd7de86797f0878a13919081900360600190a250505050565b60018260ff1610158015610b46575060058260ff1611155b610b845760405162461bcd60e51b815260206004820152600f60248201526e45737461646f20696e76616c69646f60881b60448201526064016104e5565b60ff82166000908152600b60205260409020610ba082826122e5565b507f980defff28c2aa93ade32b747b2c90acd7c6a75182f192a6f56529ee7095cc448282604051610bd29291906123a5565b60405180910390a15050565b610be83382611581565b610c045760405162461bcd60e51b81526004016104e5906123c1565b6106d3838383611600565b6000610c1a836113d6565b6001600160a01b031603610c405760405162461bcd60e51b81526004016104e59061220a565b6001600160a01b038116610c8e5760405162461bcd60e51b815260206004820152601560248201527441636f6d70616e616e7465206e6f2076616c69646f60581b60448201526064016104e5565b60009182526009602052604090912080546001600160a01b0319166001600160a01b03909216919091179055565b60006001600160a01b038216610d0c5760405162461bcd60e51b815260206004820152601560248201527444657374696e61746172696f20696e76616c69646f60581b60448201526064016104e5565b600c805460009182610d1d83612270565b919050559050610d2d83826114b2565b60008181526007602090815260408083208054600160ff19918216811790925560088452828520805490911690556009835290832080546001600160a01b03191690558252600b90527f72c6bfb7988af3a1efa6568f02a999bc52252641c659d85961ca3d372b57d5cf8054610da290612236565b90501115610de6576001600052600b6020527f72c6bfb7988af3a1efa6568f02a999bc52252641c659d85961ca3d372b57d5cf8054610de69183916109cd90612236565b6040516001600160a01b0384169082907fe9fa0fdf8bc90209fd71b507983d095dabaf75c8f6c131ccc84bab8e02123de090600090a392915050565b600b6020526000908152604090208054610e3b90612236565b80601f0160208091040260200160405190810160405280929190818152602001828054610e6790612236565b8015610eb45780601f10610e8957610100808354040283529160200191610eb4565b820191906000526020600020905b815481529060010190602001808311610e9757829003601f168201915b505050505081565b6106d3838383604051806020016040528060008152506112ed565b600080610ee3836113d6565b6001600160a01b031603610f095760405162461bcd60e51b81526004016104e59061220a565b5060009081526008602052604090205460ff1690565b600080610f2b836113d6565b90506001600160a01b0381166104ad5760405162461bcd60e51b8152602060048201526018602482015277115490cdcc8c4e881a5b9d985b1a59081d1bdad95b88125160421b60448201526064016104e5565b60006001600160a01b038216610fe85760405162461bcd60e51b815260206004820152602960248201527f4552433732313a2061646472657373207a65726f206973206e6f7420612076616044820152683634b21037bbb732b960b91b60648201526084016104e5565b506001600160a01b031660009081526003602052604090205490565b600061100f826113d6565b6001600160a01b0316036110355760405162461bcd60e51b81526004016104e59061220a565b60008181526007602052604090205460ff166004146110965760405162461bcd60e51b815260206004820152601e60248201527f536572766963696f20646562652065737461722063616c6966696361646f000060448201526064016104e5565b6000818152600760209081526040808320805460ff19811660051790915560099092529091205460ff909116906001600160a01b0316806111135760405162461bcd60e51b815260206004820152601760248201527641636f6d70616e616e7465206e6f20617369676e61646f60481b60448201526064016104e5565b600c80546000918261112483612270565b91905055905061113482826114b2565b60008181526007602090815260408083208054600560ff1991821681179092558885526008845282852054868652838620805460ff909216919092161790556009835290832080546001600160a01b0319166001600160a01b0387161790558252600b905260008051602061252f83398151915280546111b390612236565b905011156111e5576005600052600b60205260008051602061252f83398151915280546111e59183916109cd90612236565b6000848152600a60209081526040808320849055600882529182902054825160ff8781168252600593820193909352911681830152905185917f4f94d5116f4945dafe7888956ff16dc6beff3ef0328302fd7de86797f0878a13919081900360600190a280826001600160a01b0316857f42406f986d0f800e9a448e3b7bf73812e866ea21c87f9de9b62543f3f7fc259d60405160405180910390a450505050565b600080611293836113d6565b6001600160a01b0316036112b95760405162461bcd60e51b81526004016104e59061220a565b5060009081526007602052604090205460ff1690565b60606001805461051990612236565b6112e9338383611764565b5050565b6112f73383611581565b6113135760405162461bcd60e51b81526004016104e5906123c1565b61131f84848484611832565b50505050565b60606104ad82611865565b60008061133c836113d6565b6001600160a01b0316036113625760405162461bcd60e51b81526004016104e59061220a565b506000908152600a602052604090205490565b60606000611382836113d6565b6001600160a01b0316036113a85760405162461bcd60e51b81526004016104e59061220a565b6104ad82611325565b60006001600160e01b03198216632483248360e11b14806104ad57506104ad8261196d565b6000908152600260205260409020546001600160a01b031690565b6113fa816119bd565b6114415760405162461bcd60e51b8152602060048201526018602482015277115490cdcc8c4e881a5b9d985b1a59081d1bdad95b88125160421b60448201526064016104e5565b50565b600081815260046020526040902080546001600160a01b0319166001600160a01b038416908117909155819061147982610f1f565b6001600160a01b03167f8c5be1e5ebec7d5bd14f71427d1e84f3dd0314c0f7b2291e5b200ac8c7c3b92560405160405180910390a45050565b6112e98282604051806020016040528060008152506119da565b6114d5826119bd565b6115385760405162461bcd60e51b815260206004820152602e60248201527f45524337323155524953746f726167653a2055524920736574206f66206e6f6e60448201526d32bc34b9ba32b73a103a37b5b2b760911b60648201526084016104e5565b600082815260066020526040902061155082826122e5565b506040518281527ff8e1a15aba9398e019f0b49df1a4fde98ee17ae345cb5f6b5e2c27f5033e8ce790602001610bd2565b60008061158d83610f1f565b9050806001600160a01b0316846001600160a01b031614806115d457506001600160a01b0380821660009081526005602090815260408083209388168352929052205460ff165b806115f85750836001600160a01b03166115ed8461059c565b6001600160a01b0316145b949350505050565b826001600160a01b031661161382610f1f565b6001600160a01b0316146116395760405162461bcd60e51b81526004016104e59061240e565b6001600160a01b03821661169b5760405162461bcd60e51b8152602060048201526024808201527f4552433732313a207472616e7366657220746f20746865207a65726f206164646044820152637265737360e01b60648201526084016104e5565b826001600160a01b03166116ae82610f1f565b6001600160a01b0316146116d45760405162461bcd60e51b81526004016104e59061240e565b600081815260046020908152604080832080546001600160a01b03199081169091556001600160a01b0387811680865260038552838620805460001901905590871680865283862080546001019055868652600290945282852080549092168417909155905184937fddf252ad1be2c89b69c2b068fc378daa952ba7f163c4a11628f55a4df523b3ef91a4505050565b816001600160a01b0316836001600160a01b0316036117c55760405162461bcd60e51b815260206004820152601960248201527f4552433732313a20617070726f766520746f2063616c6c65720000000000000060448201526064016104e5565b6001600160a01b03838116600081815260056020908152604080832094871680845294825291829020805460ff191686151590811790915591519182527f17307eab39ab6107e8899845ad3d59bd9653f200f220920489ca2b5937696c31910160405180910390a3505050565b61183d848484611600565b61184984848484611a0d565b61131f5760405162461bcd60e51b81526004016104e590612453565b6060611870826113f1565b6000828152600660205260408120805461188990612236565b80601f01602080910402602001604051908101604052809291908181526020018280546118b590612236565b80156119025780601f106118d757610100808354040283529160200191611902565b820191906000526020600020905b8154815290600101906020018083116118e557829003601f168201915b50505050509050600061192060408051602081019091526000815290565b90508051600003611932575092915050565b81511561196457808260405160200161194c9291906124a5565b60405160208183030381529060405292505050919050565b6115f884611b0e565b60006001600160e01b031982166380ac58cd60e01b148061199e57506001600160e01b03198216635b5e139f60e01b145b806104ad57506301ffc9a760e01b6001600160e01b03198316146104ad565b6000806119c9836113d6565b6001600160a01b0316141592915050565b6119e48383611b82565b6119f16000848484611a0d565b6106d35760405162461bcd60e51b81526004016104e590612453565b60006001600160a01b0384163b15611b0357604051630a85bd0160e11b81526001600160a01b0385169063150b7a0290611a519033908990889088906004016124d4565b6020604051808303816000875af1925050508015611a8c575060408051601f3d908101601f19168201909252611a8991810190612511565b60015b611ae9573d808015611aba576040519150601f19603f3d011682016040523d82523d6000602084013e611abf565b606091505b508051600003611ae15760405162461bcd60e51b81526004016104e590612453565b805181602001fd5b6001600160e01b031916630a85bd0160e11b1490506115f8565b506001949350505050565b6060611b19826113f1565b6000611b3060408051602081019091526000815290565b90506000815111611b505760405180602001604052806000815250611b7b565b80611b5a84611cef565b604051602001611b6b9291906124a5565b6040516020818303038152906040525b9392505050565b6001600160a01b038216611bd85760405162461bcd60e51b815260206004820181905260248201527f4552433732313a206d696e7420746f20746865207a65726f206164647265737360448201526064016104e5565b611be1816119bd565b15611c2e5760405162461bcd60e51b815260206004820152601c60248201527f4552433732313a20746f6b656e20616c7265616479206d696e7465640000000060448201526064016104e5565b611c37816119bd565b15611c845760405162461bcd60e51b815260206004820152601c60248201527f4552433732313a20746f6b656e20616c7265616479206d696e7465640000000060448201526064016104e5565b6001600160a01b038216600081815260036020908152604080832080546001019055848352600290915280822080546001600160a01b0319168417905551839291907fddf252ad1be2c89b69c2b068fc378daa952ba7f163c4a11628f55a4df523b3ef908290a45050565b60606000611cfc83611d82565b600101905060008167ffffffffffffffff811115611d1c57611d1c611f9c565b6040519080825280601f01601f191660200182016040528015611d46576020820181803683370190505b5090508181016020015b600019016f181899199a1a9b1b9c1cb0b131b232b360811b600a86061a8153600a8504945084611d5057509392505050565b60008072184f03e93ff9f4daa797ed6e38ed64bf6a1f0160401b8310611dc15772184f03e93ff9f4daa797ed6e38ed64bf6a1f0160401b830492506040015b6d04ee2d6d415b85acef81000000008310611ded576d04ee2d6d415b85acef8100000000830492506020015b662386f26fc100008310611e0b57662386f26fc10000830492506010015b6305f5e1008310611e23576305f5e100830492506008015b6127108310611e3757612710830492506004015b60648310611e49576064830492506002015b600a83106104ad5760010192915050565b6001600160e01b03198116811461144157600080fd5b600060208284031215611e8257600080fd5b8135611b7b81611e5a565b600060208284031215611e9f57600080fd5b5035919050565b60005b83811015611ec1578181015183820152602001611ea9565b50506000910152565b60008151808452611ee2816020860160208601611ea6565b601f01601f19169290920160200192915050565b602081526000611b7b6020830184611eca565b80356001600160a01b0381168114611f2057600080fd5b919050565b60008060408385031215611f3857600080fd5b611f4183611f09565b946020939093013593505050565b803560ff81168114611f2057600080fd5b600080600060608486031215611f7557600080fd5b83359250611f8560208501611f4f565b9150611f9360408501611f4f565b90509250925092565b634e487b7160e01b600052604160045260246000fd5b600067ffffffffffffffff80841115611fcd57611fcd611f9c565b604051601f8501601f19908116603f01168101908282118183101715611ff557611ff5611f9c565b8160405280935085815286868601111561200e57600080fd5b858560208301376000602087830101525050509392505050565b6000806040838503121561203b57600080fd5b61204483611f4f565b9150602083013567ffffffffffffffff81111561206057600080fd5b8301601f8101851361207157600080fd5b61208085823560208401611fb2565b9150509250929050565b60008060006060848603121561209f57600080fd5b6120a884611f09565b92506120b660208501611f09565b9150604084013590509250925092565b600080604083850312156120d957600080fd5b823591506120e960208401611f09565b90509250929050565b60006020828403121561210457600080fd5b611b7b82611f09565b60006020828403121561211f57600080fd5b611b7b82611f4f565b6000806040838503121561213b57600080fd5b61214483611f09565b91506020830135801515811461215957600080fd5b809150509250929050565b6000806000806080858703121561217a57600080fd5b61218385611f09565b935061219160208601611f09565b925060408501359150606085013567ffffffffffffffff8111156121b457600080fd5b8501601f810187136121c557600080fd5b6121d487823560208401611fb2565b91505092959194509250565b600080604083850312156121f357600080fd5b6121fc83611f09565b91506120e960208401611f09565b602080825260129082015271536572766963696f206e6f2065786973746560701b604082015260600190565b600181811c9082168061224a57607f821691505b60208210810361226a57634e487b7160e01b600052602260045260246000fd5b50919050565b60006001820161229057634e487b7160e01b600052601160045260246000fd5b5060010190565b601f8211156106d357600081815260208120601f850160051c810160208610156122be5750805b601f850160051c820191505b818110156122dd578281556001016122ca565b505050505050565b815167ffffffffffffffff8111156122ff576122ff611f9c565b6123138161230d8454612236565b84612297565b602080601f83116001811461234857600084156123305750858301515b600019600386901b1c1916600185901b1785556122dd565b600085815260208120601f198616915b8281101561237757888601518255948401946001909101908401612358565b50858210156123955787850151600019600388901b60f8161c191681555b5050505050600190811b01905550565b60ff831681526040602082015260006115f86040830184611eca565b6020808252602d908201527f4552433732313a2063616c6c6572206973206e6f7420746f6b656e206f776e6560408201526c1c881bdc88185c1c1c9bdd9959609a1b606082015260800190565b60208082526025908201527f4552433732313a207472616e736665722066726f6d20696e636f72726563742060408201526437bbb732b960d91b606082015260800190565b60208082526032908201527f4552433732313a207472616e7366657220746f206e6f6e20455243373231526560408201527131b2b4bb32b91034b6b83632b6b2b73a32b960711b606082015260800190565b600083516124b7818460208801611ea6565b8351908301906124cb818360208801611ea6565b01949350505050565b6001600160a01b038581168252841660208201526040810183905260806060820181905260009061250790830184611eca565b9695505050505050565b60006020828403121561252357600080fd5b8151611b7b81611e5a56feebae6141bae5521e99e0a8d610356b0f501fea54980b59c84841db43ba7204f4a264697066735822122057d2236a06886b0f95bdcf8d5fa275022e48a1b5dad90df76317d03534f355d364736f6c63430008130033",
  "linkReferences": {},
  "deployedLinkReferences": {}
}