{
  "_format": "hh-sol-artifact-1",
  "contractName": "ColeccionServiciosNFT",
  "sourceName": "contracts/ColeccionServiciosNFT.sol",
  "abi": [
    {
      "inputs": [],
      "stateMutability": "nonpayable",
      "type": "constructor"
    },
    {
      "anonymous": false,
      "inputs": [
        {
          "indexed": true,
          "internalType": "uint256",
          "name": "tokenId",
          "type": "uint256"
        },
        {
          "indexed": true,
          "internalType": "address",
          "name": "acompanante",
          "type": "address"
        }
      ],
      "name": "AcompananteAsignado",
      "type": "event"
    },
    {
      "anonymous": false,
      "inputs": [
        {
          "indexed": true,
          "internalType": "address",
          "name": "owner",
          "type": "address"
        },
        {
          "indexed": true,
          "internalType": "address",
          "name": "approved",
          "type": "address"
        },
        {
          "indexed": true,
          "internalType": "uint256",
          "name": "tokenId",
          "type": "uint256"
        }
      ],
      "name": "Approval",
      "type": "event"
    },
    {
      "anonymous": false,
      "inputs": [
        {
          "indexed": true,
          "internalType": "address",
          "name": "owner",
          "type": "address"
        },
        {
          "indexed": true,
          "internalType": "address",
          "name": "operator",
          "type": "address"
        },
        {
          "indexed": false,
          "internalType": "bool",
          "name": "approved",
          "type": "bool"
        }
      ],
      "name": "ApprovalForAll",
      "type": "event"
    },
    {
      "anonymous": false,
      "inputs": [
        {
          "indexed": false,
          "internalType": "uint256",
          "name": "_fromTokenId",
          "type": "uint256"
        },
        {
          "indexed": false,
          "internalType": "uint256",
          "name": "_toTokenId",
          "type": "uint256"
        }
      ],
      "name": "BatchMetadataUpdate",
      "type": "event"
    },
    {
      "anonymous": false,
      "inputs": [
        {
          "indexed": true,
          "internalType": "uint256",
          "name": "tokenId",
          "type": "uint256"
        },
        {
          "indexed": false,
          "internalType": "uint8",
          "name": "estadoAnterior",
          "type": "uint8"
        },
        {
          "indexed": false,
          "internalType": "uint8",
          "name": "nuevoEstado",
          "type": "uint8"
        }
      ],
      "name": "EstadoCambiado",
      "type": "event"
    },
    {
      "anonymous": false,
      "inputs": [
        {
          "indexed": false,
          "internalType": "uint256",
          "name": "_tokenId",
          "type": "uint256"
        }
      ],
      "name": "MetadataUpdate",
      "type": "event"
    },
    {
      "anonymous": false,
      "inputs": [
        {
          "indexed": true,
          "internalType": "uint256",
          "name": "tokenId",
          "type": "uint256"
        },
        {
          "indexed": true,
          "internalType": "address",
          "name": "destinatario",
          "type": "address"
        }
      ],
      "name": "ServicioCreado",
      "type": "event"
    },
    {
      "anonymous": false,
      "inputs": [
        {
          "indexed": true,
          "internalType": "address",
          "name": "from",
          "type": "address"
        },
        {
          "indexed": true,
          "internalType": "address",
          "name": "to",
          "type": "address"
        },
        {
          "indexed": true,
          "internalType": "uint256",
          "name": "tokenId",
          "type": "uint256"
        }
      ],
      "name": "Transfer",
      "type": "event"
    },
    {
      "anonymous": false,
      "inputs": [
        {
          "indexed": false,
          "internalType": "uint8",
          "name": "estado",
          "type": "uint8"
        },
        {
          "indexed": false,
          "internalType": "string",
          "name": "nuevaURI",
          "type": "string"
        }
      ],
      "name": "URIEstadoConfigurada",
      "type": "event"
    },
    {
      "inputs": [],
      "name": "ESTADO_CREADO",
      "outputs": [
        {
          "internalType": "uint8",
          "name": "",
          "type": "uint8"
        }
      ],
      "stateMutability": "view",
      "type": "function"
    },
    {
      "inputs": [],
      "name": "ESTADO_ENCONTRADO",
      "outputs": [
        {
          "internalType": "uint8",
          "name": "",
          "type": "uint8"
        }
      ],
      "stateMutability": "view",
      "type": "function"
    },
    {
      "inputs": [],
      "name": "ESTADO_FINALIZADO",
      "outputs": [
        {
          "internalType": "uint8",
          "name": "",
          "type": "uint8"
        }
      ],
      "stateMutability": "view",
      "type": "function"
    },
    {
      "inputs": [
        {
          "internalType": "uint8",
          "name": "",
          "type": "uint8"
        }
      ],
      "name": "URIsPorEstado",
      "outputs": [
        {
          "internalType": "string",
          "name": "",
          "type": "string"
        }
      ],
      "stateMutability": "view",
      "type": "function"
    },
    {
      "inputs": [
        {
          "internalType": "uint256",
          "name": "",
          "type": "uint256"
        }
      ],
      "name": "acompanantesServicios",
      "outputs": [
        {
          "internalType": "address",
          "name": "",
          "type": "address"
        }
      ],
      "stateMutability": "view",
      "type": "function"
    },
    {
      "inputs": [
        {
          "internalType": "address",
          "name": "to",
          "type": "address"
        },
        {
          "internalType": "uint256",
          "name": "tokenId",
          "type": "uint256"
        }
      ],
      "name": "approve",
      "outputs": [],
      "stateMutability": "nonpayable",
      "type": "function"
    },
    {
      "inputs": [
        {
          "internalType": "uint256",
          "name": "tokenId",
          "type": "uint256"
        },
        {
          "internalType": "address",
          "name": "acompanante",
          "type": "address"
        }
      ],
      "name": "asignarAcompanante",
      "outputs": [],
      "stateMutability": "nonpayable",
      "type": "function"
    },
    {
      "inputs": [
        {
          "internalType": "address",
          "name": "owner",
          "type": "address"
        }
      ],
      "name": "balanceOf",
      "outputs": [
        {
          "internalType": "uint256",
          "name": "",
          "type": "uint256"
        }
      ],
      "stateMutability": "view",
      "type": "function"
    },
    {
      "inputs": [
        {
          "internalType": "uint256",
          "name": "tokenId",
          "type": "uint256"
        },
        {
          "internalType": "uint8",
          "name": "nuevoEstado",
          "type": "uint8"
        }
      ],
      "name": "cambiarEstadoServicio",
      "outputs": [],
      "stateMutability": "nonpayable",
      "type": "function"
    },
    {
      "inputs": [
        {
          "internalType": "uint8",
          "name": "estado",
          "type": "uint8"
        },
        {
          "internalType": "string",
          "name": "nuevaURI",
          "type": "string"
        }
      ],
      "name": "configurarURIEstado",
      "outputs": [],
      "stateMutability": "nonpayable",
      "type": "function"
    },
    {
      "inputs": [
        {
          "internalType": "address",
          "name": "destinatario",
          "type": "address"
        }
      ],
      "name": "crearServicio",
      "outputs": [
        {
          "internalType": "uint256",
          "name": "",
          "type": "uint256"
        }
      ],
      "stateMutability": "nonpayable",
      "type": "function"
    },
    {
      "inputs": [
        {
          "internalType": "uint256",
          "name": "",
          "type": "uint256"
        }
      ],
      "name": "estadosServicios",
      "outputs": [
        {
          "internalType": "uint8",
          "name": "",
          "type": "uint8"
        }
      ],
      "stateMutability": "view",
      "type": "function"
    },
    {
      "inputs": [
        {
          "internalType": "uint256",
          "name": "tokenId",
          "type": "uint256"
        }
      ],
      "name": "finalizarServicio",
      "outputs": [],
      "stateMutability": "nonpayable",
      "type": "function"
    },
    {
      "inputs": [
        {
          "internalType": "uint256",
          "name": "tokenId",
          "type": "uint256"
        }
      ],
      "name": "getApproved",
      "outputs": [
        {
          "internalType": "address",
          "name": "",
          "type": "address"
        }
      ],
      "stateMutability": "view",
      "type": "function"
    },
    {
      "inputs": [
        {
          "internalType": "address",
          "name": "owner",
          "type": "address"
        },
        {
          "internalType": "address",
          "name": "operator",
          "type": "address"
        }
      ],
      "name": "isApprovedForAll",
      "outputs": [
        {
          "internalType": "bool",
          "name": "",
          "type": "bool"
        }
      ],
      "stateMutability": "view",
      "type": "function"
    },
    {
      "inputs": [],
      "name": "name",
      "outputs": [
        {
          "internalType": "string",
          "name": "",
          "type": "string"
        }
      ],
      "stateMutability": "view",
      "type": "function"
    },
    {
      "inputs": [
        {
          "internalType": "uint256",
          "name": "tokenId",
          "type": "uint256"
        }
      ],
      "name": "obtenerAcompanante",
      "outputs": [
        {
          "internalType": "address",
          "name": "",
          "type": "address"
        }
      ],
      "stateMutability": "view",
      "type": "function"
    },
    {
      "inputs": [
        {
          "internalType": "address",
          "name": "wallet",
          "type": "address"
        }
      ],
      "name": "obtenerEstadisticasWallet",
      "outputs": [
        {
          "internalType": "uint256",
          "name": "totalServicios",
          "type": "uint256"
        },
        {
          "internalType": "uint256",
          "name": "serviciosCreados",
          "type": "uint256"
        },
        {
          "internalType": "uint256",
          "name": "serviciosEncontrados",
          "type": "uint256"
        },
        {
          "internalType": "uint256",
          "name": "serviciosFinalizados",
          "type": "uint256"
        }
      ],
      "stateMutability": "view",
      "type": "function"
    },
    {
      "inputs": [
        {
          "internalType": "uint256",
          "name": "tokenId",
          "type": "uint256"
        }
      ],
      "name": "obtenerEstadoServicio",
      "outputs": [
        {
          "internalType": "uint8",
          "name": "",
          "type": "uint8"
        }
      ],
      "stateMutability": "view",
      "type": "function"
    },
    {
      "inputs": [
        {
          "internalType": "uint256",
          "name": "tokenId",
          "type": "uint256"
        }
      ],
      "name": "obtenerInfoCompleta",
      "outputs": [
        {
          "internalType": "address",
          "name": "propietario",
          "type": "address"
        },
        {
          "internalType": "uint8",
          "name": "estado",
          "type": "uint8"
        },
        {
          "internalType": "address",
          "name": "acompanante",
          "type": "address"
        },
        {
          "internalType": "string",
          "name": "uri",
          "type": "string"
        }
      ],
      "stateMutability": "view",
      "type": "function"
    },
    {
      "inputs": [],
      "name": "obtenerProximoTokenId",
      "outputs": [
        {
          "internalType": "uint256",
          "name": "",
          "type": "uint256"
        }
      ],
      "stateMutability": "view",
      "type": "function"
    },
    {
      "inputs": [
        {
          "internalType": "address",
          "name": "wallet",
          "type": "address"
        }
      ],
      "name": "obtenerServiciosConEstados",
      "outputs": [
        {
          "internalType": "uint256[]",
          "name": "tokenIds",
          "type": "uint256[]"
        },
        {
          "internalType": "uint8[]",
          "name": "estados",
          "type": "uint8[]"
        },
        {
          "internalType": "address[]",
          "name": "acompanantes",
          "type": "address[]"
        }
      ],
      "stateMutability": "view",
      "type": "function"
    },
    {
      "inputs": [
        {
          "internalType": "uint256",
          "name": "tokenId",
          "type": "uint256"
        }
      ],
      "name": "obtenerURIServicio",
      "outputs": [
        {
          "internalType": "string",
          "name": "",
          "type": "string"
        }
      ],
      "stateMutability": "view",
      "type": "function"
    },
    {
      "inputs": [
        {
          "internalType": "uint256",
          "name": "tokenId",
          "type": "uint256"
        }
      ],
      "name": "ownerOf",
      "outputs": [
        {
          "internalType": "address",
          "name": "",
          "type": "address"
        }
      ],
      "stateMutability": "view",
      "type": "function"
    },
    {
      "inputs": [
        {
          "internalType": "address",
          "name": "from",
          "type": "address"
        },
        {
          "internalType": "address",
          "name": "to",
          "type": "address"
        },
        {
          "internalType": "uint256",
          "name": "tokenId",
          "type": "uint256"
        }
      ],
      "name": "safeTransferFrom",
      "outputs": [],
      "stateMutability": "nonpayable",
      "type": "function"
    },
    {
      "inputs": [
        {
          "internalType": "address",
          "name": "from",
          "type": "address"
        },
        {
          "internalType": "address",
          "name": "to",
          "type": "address"
        },
        {
          "internalType": "uint256",
          "name": "tokenId",
          "type": "uint256"
        },
        {
          "internalType": "bytes",
          "name": "data",
          "type": "bytes"
        }
      ],
      "name": "safeTransferFrom",
      "outputs": [],
      "stateMutability": "nonpayable",
      "type": "function"
    },
    {
      "inputs": [
        {
          "internalType": "address",
          "name": "operator",
          "type": "address"
        },
        {
          "internalType": "bool",
          "name": "approved",
          "type": "bool"
        }
      ],
      "name": "setApprovalForAll",
      "outputs": [],
      "stateMutability": "nonpayable",
      "type": "function"
    },
    {
      "inputs": [
        {
          "internalType": "bytes4",
          "name": "interfaceId",
          "type": "bytes4"
        }
      ],
      "name": "supportsInterface",
      "outputs": [
        {
          "internalType": "bool",
          "name": "",
          "type": "bool"
        }
      ],
      "stateMutability": "view",
      "type": "function"
    },
    {
      "inputs": [],
      "name": "symbol",
      "outputs": [
        {
          "internalType": "string",
          "name": "",
          "type": "string"
        }
      ],
      "stateMutability": "view",
      "type": "function"
    },
    {
      "inputs": [
        {
          "internalType": "address",
          "name": "wallet",
          "type": "address"
        }
      ],
      "name": "tieneServiciosActivos",
      "outputs": [
        {
          "internalType": "bool",
          "name": "",
          "type": "bool"
        }
      ],
      "stateMutability": "view",
      "type": "function"
    },
    {
      "inputs": [
        {
          "internalType": "uint256",
          "name": "tokenId",
          "type": "uint256"
        }
      ],
      "name": "tokenURI",
      "outputs": [
        {
          "internalType": "string",
          "name": "",
          "type": "string"
        }
      ],
      "stateMutability": "view",
      "type": "function"
    },
    {
      "inputs": [
        {
          "internalType": "address",
          "name": "from",
          "type": "address"
        },
        {
          "internalType": "address",
          "name": "to",
          "type": "address"
        },
        {
          "internalType": "uint256",
          "name": "tokenId",
          "type": "uint256"
        }
      ],
      "name": "transferFrom",
      "outputs": [],
      "stateMutability": "nonpayable",
      "type": "function"
    }
  ],
  "bytecode": "0x60806040523480156200001157600080fd5b506040518060400160405280601581526020017f436f6c656363696f6e536572766963696f734e465400000000000000000000008152506040518060400160405280600581526020016410d4d3919560da1b815250816000908162000077919062000134565b50600162000086828262000134565b50505062000200565b634e487b7160e01b600052604160045260246000fd5b600181811c90821680620000ba57607f821691505b602082108103620000db57634e487b7160e01b600052602260045260246000fd5b50919050565b601f8211156200012f57600081815260208120601f850160051c810160208610156200010a5750805b601f850160051c820191505b818110156200012b5782815560010162000116565b5050505b505050565b81516001600160401b038111156200015057620001506200008f565b6200016881620001618454620000a5565b84620000e1565b602080601f831160018114620001a05760008415620001875750858301515b600019600386901b1c1916600185901b1785556200012b565b600085815260208120601f198616915b82811015620001d157888601518255948401946001909101908401620001b0565b5085821015620001f05787850151600019600388901b60f8161c191681555b5050505050600190811b01905550565b61289e80620002106000396000f3fe608060405234801561001057600080fd5b50600436106101f05760003560e01c80636352211e1161010f578063b88d4fde116100a2578063e985e9c511610071578063e985e9c514610483578063f2501913146104bf578063f91153bb146104e2578063f91e819b146104ea57600080fd5b8063b88d4fde14610437578063c263107d1461044a578063c87b56dd1461045d578063ca363cd31461047057600080fd5b806395d89b41116100de57806395d89b41146103e657806396fff68f146103ee578063a22cb46514610401578063b4c4d88c1461041457600080fd5b80636352211e146103a557806370a08231146103b85780638d3f55ef146103cb5780638def163d146103de57600080fd5b80632d2185b6116101875780633f03fb6c116101565780633f03fb6c1461032357806342842e0e14610336578063475b0ac0146103495780634f9a68151461037c57600080fd5b80632d2185b6146102cd578063334a6c86146102e05780633a0f52b8146102fa5780633d8692731461031b57600080fd5b8063095ea7b3116101c3578063095ea7b31461027057806311a9e86014610285578063152135511461029857806323b872dd146102ba57600080fd5b806301ffc9a7146101f557806305f70b391461021d57806306fdde0314610248578063081812fc1461025d575b600080fd5b610208610203366004612073565b6104fd565b60405190151581526020015b60405180910390f35b61023061022b366004612090565b61050e565b6040516001600160a01b039091168152602001610214565b610250610565565b60405161021491906120f9565b61023061026b366004612090565b6105f7565b61028361027e366004612121565b61061e565b005b6102836102933660046121ef565b610733565b6102ab6102a6366004612251565b6107e3565b604051610214939291906122b2565b6102836102c8366004612343565b610a22565b6102836102db366004612384565b610a53565b6102e8600381565b60405160ff9091168152602001610214565b61030d610308366004612251565b610d04565b604051908152602001610214565b6102e8600181565b6102506103313660046123b4565b610e5b565b610283610344366004612343565b610ef5565b61035c610357366004612251565b610f10565b604080519485526020850193909352918301526060820152608001610214565b61023061038a366004612090565b6008602052600090815260409020546001600160a01b031681565b6102306103b3366004612090565b611027565b61030d6103c6366004612251565b611086565b6102e86103d9366004612090565b61110c565b6102e8600281565b610250611154565b6102086103fc366004612251565b611163565b61028361040f3660046123cf565b61122d565b6102e8610422366004612090565b60076020526000908152604090205460ff1681565b610283610445366004612402565b61123c565b610283610458366004612090565b611274565b61025061046b366004612090565b611282565b61028361047e366004612482565b61128d565b6102086104913660046124ae565b6001600160a01b03918216600090815260056020908152604080832093909416825291909152205460ff1690565b6104d26104cd366004612090565b6114fc565b60405161021494939291906124dc565b600a5461030d565b6102506104f8366004612090565b61157b565b6000610508826115b7565b92915050565b60008061051a836115dc565b6001600160a01b0316036105495760405162461bcd60e51b81526004016105409061251b565b60405180910390fd5b506000908152600860205260409020546001600160a01b031690565b60606000805461057490612547565b80601f01602080910402602001604051908101604052809291908181526020018280546105a090612547565b80156105ed5780601f106105c2576101008083540402835291602001916105ed565b820191906000526020600020905b8154815290600101906020018083116105d057829003601f168201915b5050505050905090565b6000610602826115f7565b506000908152600460205260409020546001600160a01b031690565b600061062982611027565b9050806001600160a01b0316836001600160a01b0316036106965760405162461bcd60e51b815260206004820152602160248201527f4552433732313a20617070726f76616c20746f2063757272656e74206f776e656044820152603960f91b6064820152608401610540565b336001600160a01b03821614806106b257506106b28133610491565b6107245760405162461bcd60e51b815260206004820152603d60248201527f4552433732313a20617070726f76652063616c6c6572206973206e6f7420746f60448201527f6b656e206f776e6572206f7220617070726f76656420666f7220616c6c0000006064820152608401610540565b61072e8383611647565b505050565b600160ff83161080159061074b5750600360ff831611155b6107895760405162461bcd60e51b815260206004820152600f60248201526e45737461646f20696e76616c69646f60881b6044820152606401610540565b60ff821660009081526009602052604090206107a582826125cf565b507f980defff28c2aa93ade32b747b2c90acd7c6a75182f192a6f56529ee7095cc4482826040516107d792919061268f565b60405180910390a15050565b606080606060006107f385611086565b90508067ffffffffffffffff81111561080e5761080e612163565b604051908082528060200260200182016040528015610837578160200160208202803683370190505b5093508067ffffffffffffffff81111561085357610853612163565b60405190808252806020026020018201604052801561087c578160200160208202803683370190505b5092508067ffffffffffffffff81111561089857610898612163565b6040519080825280602002602001820160405280156108c1578160200160208202803683370190505b5091506000805b600a54811080156108d857508282105b15610a18576040516331a9108f60e11b8152600481018290523090636352211e90602401602060405180830381865afa925050508015610935575060408051601f3d908101601f19168201909252610932918101906126ab565b60015b15610a0657876001600160a01b0316816001600160a01b031603610a045781878481518110610966576109666126c8565b602090810291909101810191909152600083815260079091526040902054865160ff9091169087908590811061099e5761099e6126c8565b60ff90921660209283029190910182015260008381526008909152604090205485516001600160a01b03909116908690859081106109de576109de6126c8565b6001600160a01b039092166020928302919091019091015282610a00816126de565b9350505b505b80610a10816126de565b9150506108c8565b5050509193909250565b610a2c33826116b5565b610a485760405162461bcd60e51b815260040161054090612705565b61072e838383611734565b6000610a5e836115dc565b6001600160a01b031603610a845760405162461bcd60e51b81526004016105409061251b565b6001600160a01b038116610ad25760405162461bcd60e51b815260206004820152601560248201527441636f6d70616e616e7465206e6f2076616c69646f60581b6044820152606401610540565b60008281526007602052604090205460ff16600114610b335760405162461bcd60e51b815260206004820152601d60248201527f536572766963696f206465626520657374617220656e2043524541444f0000006044820152606401610540565b600082815260086020908152604080832080546001600160a01b0319166001600160a01b038616179055600790915281208054600260ff1982161790915560ff1690610b7e84611027565b9050610b8b818486611734565b6002600090815260096020527f6cde3cea4b3a3fb2488b2808bae7556f4a405e50f65e1794383bc026131b13c38054610bc390612547565b90501115610c8a57600260005260096020527f6cde3cea4b3a3fb2488b2808bae7556f4a405e50f65e1794383bc026131b13c38054610c8a918691610c0790612547565b80601f0160208091040260200160405190810160405280929190818152602001828054610c3390612547565b8015610c805780601f10610c5557610100808354040283529160200191610c80565b820191906000526020600020905b815481529060010190602001808311610c6357829003601f168201915b5050505050611898565b6040805160ff841681526002602082015285917fe5d9f394d12844b1fcefefc1b85b8d63438d7d2d4a00ee95a530cbc91d63ce62910160405180910390a26040516001600160a01b0384169085907fb84ba53d37a36d8071ead267a9e0c98676f35179f116770eae4fddcaadc22ffd90600090a350505050565b60006001600160a01b038216610d545760405162461bcd60e51b815260206004820152601560248201527444657374696e61746172696f20696e76616c69646f60581b6044820152606401610540565b600a805460009182610d65836126de565b919050559050610d75838261194d565b6000818152600760209081526040808320805460ff191660019081179091556008835290832080546001600160a01b03191690558252600990527f92e85d02570a8092d09a6e3a57665bc3815a2699a4074001bf1ccabf660f5a368054610ddb90612547565b90501115610e1f57600160005260096020527f92e85d02570a8092d09a6e3a57665bc3815a2699a4074001bf1ccabf660f5a368054610e1f918391610c0790612547565b6040516001600160a01b0384169082907fe9fa0fdf8bc90209fd71b507983d095dabaf75c8f6c131ccc84bab8e02123de090600090a392915050565b60096020526000908152604090208054610e7490612547565b80601f0160208091040260200160405190810160405280929190818152602001828054610ea090612547565b8015610eed5780601f10610ec257610100808354040283529160200191610eed565b820191906000526020600020905b815481529060010190602001808311610ed057829003601f168201915b505050505081565b61072e8383836040518060200160405280600081525061123c565b600080600080610f1f85611086565b935060005b600a5481101561101f576040516331a9108f60e11b8152600481018290523090636352211e90602401602060405180830381865afa925050508015610f86575060408051601f3d908101601f19168201909252610f83918101906126ab565b60015b1561100d57866001600160a01b0316816001600160a01b03160361100b5760008281526007602052604090205460ff166000198101610fd15785610fc9816126de565b965050611009565b60011960ff821601610fef5784610fe7816126de565b955050611009565b60021960ff8216016110095783611005816126de565b9450505b505b505b80611017816126de565b915050610f24565b509193509193565b600080611033836115dc565b90506001600160a01b0381166105085760405162461bcd60e51b8152602060048201526018602482015277115490cdcc8c4e881a5b9d985b1a59081d1bdad95b88125160421b6044820152606401610540565b60006001600160a01b0382166110f05760405162461bcd60e51b815260206004820152602960248201527f4552433732313a2061646472657373207a65726f206973206e6f7420612076616044820152683634b21037bbb732b960b91b6064820152608401610540565b506001600160a01b031660009081526003602052604090205490565b600080611118836115dc565b6001600160a01b03160361113e5760405162461bcd60e51b81526004016105409061251b565b5060009081526007602052604090205460ff1690565b60606001805461057490612547565b6000805b600a54811015611224576040516331a9108f60e11b8152600481018290523090636352211e90602401602060405180830381865afa9250505080156111c9575060408051601f3d908101601f191682019092526111c6918101906126ab565b60015b1561121257836001600160a01b0316816001600160a01b0316148015611201575060008281526007602052604090205460ff16600314155b15611210575060019392505050565b505b8061121c816126de565b915050611167565b50600092915050565b611238338383611967565b5050565b61124633836116b5565b6112625760405162461bcd60e51b815260040161054090612705565b61126e84848484611a35565b50505050565b61127f81600361128d565b50565b606061050882611a68565b6000611298836115dc565b6001600160a01b0316036112be5760405162461bcd60e51b81526004016105409061251b565b600160ff8216108015906112d65750600360ff821611155b6113145760405162461bcd60e51b815260206004820152600f60248201526e45737461646f20696e76616c69646f60881b6044820152606401610540565b60008281526007602052604090205460ff908116908216600119016113ef5760ff81166001146113865760405162461bcd60e51b815260206004820152601d60248201527f536572766963696f206465626520657374617220656e2043524541444f0000006044820152606401610540565b6000838152600860205260409020546001600160a01b03166113ea5760405162461bcd60e51b815260206004820152601760248201527f41636f6d70616e616e7465206e6f20617369676e61646f0000000000000000006044820152606401610540565b611458565b60021960ff8316016114585760ff81166002146114585760405162461bcd60e51b815260206004820152602160248201527f536572766963696f206465626520657374617220656e20454e434f4e545241446044820152604f60f81b6064820152608401610540565b6000838152600760209081526040808320805460ff191660ff8716908117909155835260099091528120805461148d90612547565b905011156114b85760ff8216600090815260096020526040902080546114b8918591610c0790612547565b6040805160ff80841682528416602082015284917fe5d9f394d12844b1fcefefc1b85b8d63438d7d2d4a00ee95a530cbc91d63ce62910160405180910390a2505050565b6000808060608161150c866115dc565b6001600160a01b0316036115325760405162461bcd60e51b81526004016105409061251b565b61153b85611027565b60008681526007602090815260408083205460089092529091205491955060ff1693506001600160a01b0316915061157285611282565b90509193509193565b60606000611588836115dc565b6001600160a01b0316036115ae5760405162461bcd60e51b81526004016105409061251b565b61050882611282565b60006001600160e01b03198216632483248360e11b1480610508575061050882611b70565b6000908152600260205260409020546001600160a01b031690565b61160081611bc0565b61127f5760405162461bcd60e51b8152602060048201526018602482015277115490cdcc8c4e881a5b9d985b1a59081d1bdad95b88125160421b6044820152606401610540565b600081815260046020526040902080546001600160a01b0319166001600160a01b038416908117909155819061167c82611027565b6001600160a01b03167f8c5be1e5ebec7d5bd14f71427d1e84f3dd0314c0f7b2291e5b200ac8c7c3b92560405160405180910390a45050565b6000806116c183611027565b9050806001600160a01b0316846001600160a01b0316148061170857506001600160a01b0380821660009081526005602090815260408083209388168352929052205460ff165b8061172c5750836001600160a01b0316611721846105f7565b6001600160a01b0316145b949350505050565b826001600160a01b031661174782611027565b6001600160a01b03161461176d5760405162461bcd60e51b815260040161054090612752565b6001600160a01b0382166117cf5760405162461bcd60e51b8152602060048201526024808201527f4552433732313a207472616e7366657220746f20746865207a65726f206164646044820152637265737360e01b6064820152608401610540565b826001600160a01b03166117e282611027565b6001600160a01b0316146118085760405162461bcd60e51b815260040161054090612752565b600081815260046020908152604080832080546001600160a01b03199081169091556001600160a01b0387811680865260038552838620805460001901905590871680865283862080546001019055868652600290945282852080549092168417909155905184937fddf252ad1be2c89b69c2b068fc378daa952ba7f163c4a11628f55a4df523b3ef91a4505050565b6118a182611bc0565b6119045760405162461bcd60e51b815260206004820152602e60248201527f45524337323155524953746f726167653a2055524920736574206f66206e6f6e60448201526d32bc34b9ba32b73a103a37b5b2b760911b6064820152608401610540565b600082815260066020526040902061191c82826125cf565b506040518281527ff8e1a15aba9398e019f0b49df1a4fde98ee17ae345cb5f6b5e2c27f5033e8ce7906020016107d7565b611238828260405180602001604052806000815250611bdd565b816001600160a01b0316836001600160a01b0316036119c85760405162461bcd60e51b815260206004820152601960248201527f4552433732313a20617070726f766520746f2063616c6c6572000000000000006044820152606401610540565b6001600160a01b03838116600081815260056020908152604080832094871680845294825291829020805460ff191686151590811790915591519182527f17307eab39ab6107e8899845ad3d59bd9653f200f220920489ca2b5937696c31910160405180910390a3505050565b611a40848484611734565b611a4c84848484611c10565b61126e5760405162461bcd60e51b815260040161054090612797565b6060611a73826115f7565b60008281526006602052604081208054611a8c90612547565b80601f0160208091040260200160405190810160405280929190818152602001828054611ab890612547565b8015611b055780601f10611ada57610100808354040283529160200191611b05565b820191906000526020600020905b815481529060010190602001808311611ae857829003601f168201915b505050505090506000611b2360408051602081019091526000815290565b90508051600003611b35575092915050565b815115611b67578082604051602001611b4f9291906127e9565b60405160208183030381529060405292505050919050565b61172c84611d11565b60006001600160e01b031982166380ac58cd60e01b1480611ba157506001600160e01b03198216635b5e139f60e01b145b8061050857506301ffc9a760e01b6001600160e01b0319831614610508565b600080611bcc836115dc565b6001600160a01b0316141592915050565b611be78383611d85565b611bf46000848484611c10565b61072e5760405162461bcd60e51b815260040161054090612797565b60006001600160a01b0384163b15611d0657604051630a85bd0160e11b81526001600160a01b0385169063150b7a0290611c54903390899088908890600401612818565b6020604051808303816000875af1925050508015611c8f575060408051601f3d908101601f19168201909252611c8c9181019061284b565b60015b611cec573d808015611cbd576040519150601f19603f3d011682016040523d82523d6000602084013e611cc2565b606091505b508051600003611ce45760405162461bcd60e51b815260040161054090612797565b805181602001fd5b6001600160e01b031916630a85bd0160e11b14905061172c565b506001949350505050565b6060611d1c826115f7565b6000611d3360408051602081019091526000815290565b90506000815111611d535760405180602001604052806000815250611d7e565b80611d5d84611ef2565b604051602001611d6e9291906127e9565b6040516020818303038152906040525b9392505050565b6001600160a01b038216611ddb5760405162461bcd60e51b815260206004820181905260248201527f4552433732313a206d696e7420746f20746865207a65726f20616464726573736044820152606401610540565b611de481611bc0565b15611e315760405162461bcd60e51b815260206004820152601c60248201527f4552433732313a20746f6b656e20616c7265616479206d696e746564000000006044820152606401610540565b611e3a81611bc0565b15611e875760405162461bcd60e51b815260206004820152601c60248201527f4552433732313a20746f6b656e20616c7265616479206d696e746564000000006044820152606401610540565b6001600160a01b038216600081815260036020908152604080832080546001019055848352600290915280822080546001600160a01b0319168417905551839291907fddf252ad1be2c89b69c2b068fc378daa952ba7f163c4a11628f55a4df523b3ef908290a45050565b60606000611eff83611f85565b600101905060008167ffffffffffffffff811115611f1f57611f1f612163565b6040519080825280601f01601f191660200182016040528015611f49576020820181803683370190505b5090508181016020015b600019016f181899199a1a9b1b9c1cb0b131b232b360811b600a86061a8153600a8504945084611f5357509392505050565b60008072184f03e93ff9f4daa797ed6e38ed64bf6a1f0160401b8310611fc45772184f03e93ff9f4daa797ed6e38ed64bf6a1f0160401b830492506040015b6d04ee2d6d415b85acef81000000008310611ff0576d04ee2d6d415b85acef8100000000830492506020015b662386f26fc10000831061200e57662386f26fc10000830492506010015b6305f5e1008310612026576305f5e100830492506008015b612710831061203a57612710830492506004015b6064831061204c576064830492506002015b600a83106105085760010192915050565b6001600160e01b03198116811461127f57600080fd5b60006020828403121561208557600080fd5b8135611d7e8161205d565b6000602082840312156120a257600080fd5b5035919050565b60005b838110156120c45781810151838201526020016120ac565b50506000910152565b600081518084526120e58160208601602086016120a9565b601f01601f19169290920160200192915050565b602081526000611d7e60208301846120cd565b6001600160a01b038116811461127f57600080fd5b6000806040838503121561213457600080fd5b823561213f8161210c565b946020939093013593505050565b803560ff8116811461215e57600080fd5b919050565b634e487b7160e01b600052604160045260246000fd5b600067ffffffffffffffff8084111561219457612194612163565b604051601f8501601f19908116603f011681019082821181831017156121bc576121bc612163565b816040528093508581528686860111156121d557600080fd5b858560208301376000602087830101525050509392505050565b6000806040838503121561220257600080fd5b61220b8361214d565b9150602083013567ffffffffffffffff81111561222757600080fd5b8301601f8101851361223857600080fd5b61224785823560208401612179565b9150509250929050565b60006020828403121561226357600080fd5b8135611d7e8161210c565b600081518084526020808501945080840160005b838110156122a75781516001600160a01b031687529582019590820190600101612282565b509495945050505050565b606080825284519082018190526000906020906080840190828801845b828110156122eb578151845292840192908401906001016122cf565b5050508381038285015285518082528683019183019060005b8181101561232357835160ff1683529284019291840191600101612304565b50508481036040860152612337818761226e565b98975050505050505050565b60008060006060848603121561235857600080fd5b83356123638161210c565b925060208401356123738161210c565b929592945050506040919091013590565b6000806040838503121561239757600080fd5b8235915060208301356123a98161210c565b809150509250929050565b6000602082840312156123c657600080fd5b611d7e8261214d565b600080604083850312156123e257600080fd5b82356123ed8161210c565b9150602083013580151581146123a957600080fd5b6000806000806080858703121561241857600080fd5b84356124238161210c565b935060208501356124338161210c565b925060408501359150606085013567ffffffffffffffff81111561245657600080fd5b8501601f8101871361246757600080fd5b61247687823560208401612179565b91505092959194509250565b6000806040838503121561249557600080fd5b823591506124a56020840161214d565b90509250929050565b600080604083850312156124c157600080fd5b82356124cc8161210c565b915060208301356123a98161210c565b6001600160a01b03858116825260ff8516602083015283166040820152608060608201819052600090612511908301846120cd565b9695505050505050565b602080825260129082015271536572766963696f206e6f2065786973746560701b604082015260600190565b600181811c9082168061255b57607f821691505b60208210810361257b57634e487b7160e01b600052602260045260246000fd5b50919050565b601f82111561072e57600081815260208120601f850160051c810160208610156125a85750805b601f850160051c820191505b818110156125c7578281556001016125b4565b505050505050565b815167ffffffffffffffff8111156125e9576125e9612163565b6125fd816125f78454612547565b84612581565b602080601f831160018114612632576000841561261a5750858301515b600019600386901b1c1916600185901b1785556125c7565b600085815260208120601f198616915b8281101561266157888601518255948401946001909101908401612642565b508582101561267f5787850151600019600388901b60f8161c191681555b5050505050600190811b01905550565b60ff8316815260406020820152600061172c60408301846120cd565b6000602082840312156126bd57600080fd5b8151611d7e8161210c565b634e487b7160e01b600052603260045260246000fd5b6000600182016126fe57634e487b7160e01b600052601160045260246000fd5b5060010190565b6020808252602d908201527f4552433732313a2063616c6c6572206973206e6f7420746f6b656e206f776e6560408201526c1c881bdc88185c1c1c9bdd9959609a1b606082015260800190565b60208082526025908201527f4552433732313a207472616e736665722066726f6d20696e636f72726563742060408201526437bbb732b960d91b606082015260800190565b60208082526032908201527f4552433732313a207472616e7366657220746f206e6f6e20455243373231526560408201527131b2b4bb32b91034b6b83632b6b2b73a32b960711b606082015260800190565b600083516127fb8184602088016120a9565b83519083019061280f8183602088016120a9565b01949350505050565b6001600160a01b0385811682528416602082015260408101839052608060608201819052600090612511908301846120cd565b60006020828403121561285d57600080fd5b8151611d7e8161205d56fea26469706673582212201848facb7ceb96c643dfc1adc8408e74bde4b9bc753aada137c90b3e9e84734164736f6c63430008130033",
  "linkReferences": {},
  "deployedLinkReferences": {}
}